S01900004D4547415F4C45445F4558414D504C45312E7372656321
S113000033C0000051C0000037C0000035C00000FC
S113001033C0000031C000002FC000002DC000001C
S11300202BC0000029C0000027C0000025C000002C
S113003023C0000021C000001FC000001DC000003C
S11300401BC0000019C0000017C0000015C000004C
S113005013C0000011C000000FC000000DC000005C
S11300600BC0000009C0000011241FBECFEFD8E070
S1130070DEBFCDBF02D034C0C3CF3B98439A259A8C
S11300802D9A52985A9AE89A789433990BC02D9ADB
S11300902FEF88E09DE3215080409040E1F700C0BD
S11300A00000F3CF2D98F1CF1F920F920FB60F924D
S11300B011242F938F939F932D9A2FEF89E698E124
S11300C0215080409040E1F700C0000085B115B890
S11300D09F918F912F910F900FBE0F901F901895A5
S10700E0F894FFCFBE
S9030000FC
