:020000020000FC
:1000000002E114E3009302041093030426E538E7A9
:100010002093080430930904020F131FF999FECFAF
:10002000A0E0B0E0B2BDA1BD00BDFA9AF99AF9997D
:10003000FECFA1E0B0E0B2BDA1BD10BDFA9AF99A21
:10004000A0E0B5E0E0E1F9E04AE0159105911D93EB
:100050000D934A95D1F7E0E0F5E01191019149E067
:0E00600031912191130F021F4A95D1F7FFCF66
:10091000584A6151FA580F27DA4DDB12755AA4DD97
:04092000499677A9D4
:00000001FF
